{
  "_format": "hh-sol-artifact-1",
  "contractName": "TrothToken",
  "sourceName": "contracts/TrothToken.sol",
  "abi": [
    {
      "inputs": [],
      "stateMutability": "nonpayable",
      "type": "constructor"
    },
    {
      "anonymous": false,
      "inputs": [
        {
          "indexed": true,
          "internalType": "address",
          "name": "owner",
          "type": "address"
        },
        {
          "indexed": true,
          "internalType": "address",
          "name": "spender",
          "type": "address"
        },
        {
          "indexed": false,
          "internalType": "uint256",
          "name": "value",
          "type": "uint256"
        }
      ],
      "name": "Approval",
      "type": "event"
    },
    {
      "anonymous": false,
      "inputs": [
        {
          "indexed": true,
          "internalType": "address",
          "name": "previousOwner",
          "type": "address"
        },
        {
          "indexed": true,
          "internalType": "address",
          "name": "newOwner",
          "type": "address"
        }
      ],
      "name": "OwnershipTransferred",
      "type": "event"
    },
    {
      "anonymous": false,
      "inputs": [
        {
          "indexed": false,
          "internalType": "address",
          "name": "account",
          "type": "address"
        }
      ],
      "name": "Paused",
      "type": "event"
    },
    {
      "anonymous": false,
      "inputs": [
        {
          "indexed": true,
          "internalType": "address",
          "name": "from",
          "type": "address"
        },
        {
          "indexed": true,
          "internalType": "address",
          "name": "to",
          "type": "address"
        },
        {
          "indexed": false,
          "internalType": "uint256",
          "name": "value",
          "type": "uint256"
        }
      ],
      "name": "Transfer",
      "type": "event"
    },
    {
      "anonymous": false,
      "inputs": [
        {
          "indexed": false,
          "internalType": "address",
          "name": "account",
          "type": "address"
        }
      ],
      "name": "Unpaused",
      "type": "event"
    },
    {
      "inputs": [
        {
          "internalType": "address[]",
          "name": "recipients",
          "type": "address[]"
        },
        {
          "internalType": "uint128[]",
          "name": "amounts",
          "type": "uint128[]"
        }
      ],
      "name": "airdrop",
      "outputs": [
        {
          "internalType": "bool",
          "name": "",
          "type": "bool"
        }
      ],
      "stateMutability": "nonpayable",
      "type": "function"
    },
    {
      "inputs": [
        {
          "internalType": "address",
          "name": "owner",
          "type": "address"
        },
        {
          "internalType": "address",
          "name": "spender",
          "type": "address"
        }
      ],
      "name": "allowance",
      "outputs": [
        {
          "internalType": "uint256",
          "name": "",
          "type": "uint256"
        }
      ],
      "stateMutability": "view",
      "type": "function"
    },
    {
      "inputs": [
        {
          "internalType": "address",
          "name": "spender",
          "type": "address"
        },
        {
          "internalType": "uint256",
          "name": "amount",
          "type": "uint256"
        }
      ],
      "name": "approve",
      "outputs": [
        {
          "internalType": "bool",
          "name": "",
          "type": "bool"
        }
      ],
      "stateMutability": "nonpayable",
      "type": "function"
    },
    {
      "inputs": [
        {
          "internalType": "address",
          "name": "account",
          "type": "address"
        }
      ],
      "name": "balanceOf",
      "outputs": [
        {
          "internalType": "uint256",
          "name": "",
          "type": "uint256"
        }
      ],
      "stateMutability": "view",
      "type": "function"
    },
    {
      "inputs": [
        {
          "internalType": "uint256",
          "name": "amount",
          "type": "uint256"
        }
      ],
      "name": "burn",
      "outputs": [],
      "stateMutability": "nonpayable",
      "type": "function"
    },
    {
      "inputs": [
        {
          "internalType": "address",
          "name": "account",
          "type": "address"
        },
        {
          "internalType": "uint256",
          "name": "amount",
          "type": "uint256"
        }
      ],
      "name": "burnFrom",
      "outputs": [],
      "stateMutability": "nonpayable",
      "type": "function"
    },
    {
      "inputs": [],
      "name": "decimals",
      "outputs": [
        {
          "internalType": "uint8",
          "name": "",
          "type": "uint8"
        }
      ],
      "stateMutability": "view",
      "type": "function"
    },
    {
      "inputs": [
        {
          "internalType": "address",
          "name": "spender",
          "type": "address"
        },
        {
          "internalType": "uint256",
          "name": "subtractedValue",
          "type": "uint256"
        }
      ],
      "name": "decreaseAllowance",
      "outputs": [
        {
          "internalType": "bool",
          "name": "",
          "type": "bool"
        }
      ],
      "stateMutability": "nonpayable",
      "type": "function"
    },
    {
      "inputs": [
        {
          "internalType": "address",
          "name": "spender",
          "type": "address"
        },
        {
          "internalType": "uint256",
          "name": "addedValue",
          "type": "uint256"
        }
      ],
      "name": "increaseAllowance",
      "outputs": [
        {
          "internalType": "bool",
          "name": "",
          "type": "bool"
        }
      ],
      "stateMutability": "nonpayable",
      "type": "function"
    },
    {
      "inputs": [
        {
          "internalType": "address",
          "name": "_to",
          "type": "address"
        },
        {
          "internalType": "uint256",
          "name": "_amount",
          "type": "uint256"
        }
      ],
      "name": "mint",
      "outputs": [
        {
          "internalType": "bool",
          "name": "",
          "type": "bool"
        }
      ],
      "stateMutability": "nonpayable",
      "type": "function"
    },
    {
      "inputs": [],
      "name": "name",
      "outputs": [
        {
          "internalType": "string",
          "name": "",
          "type": "string"
        }
      ],
      "stateMutability": "view",
      "type": "function"
    },
    {
      "inputs": [],
      "name": "owner",
      "outputs": [
        {
          "internalType": "address",
          "name": "",
          "type": "address"
        }
      ],
      "stateMutability": "view",
      "type": "function"
    },
    {
      "inputs": [],
      "name": "pause",
      "outputs": [],
      "stateMutability": "nonpayable",
      "type": "function"
    },
    {
      "inputs": [],
      "name": "paused",
      "outputs": [
        {
          "internalType": "bool",
          "name": "",
          "type": "bool"
        }
      ],
      "stateMutability": "view",
      "type": "function"
    },
    {
      "inputs": [],
      "name": "renounceOwnership",
      "outputs": [],
      "stateMutability": "nonpayable",
      "type": "function"
    },
    {
      "inputs": [
        {
          "internalType": "address",
          "name": "_owner",
          "type": "address"
        }
      ],
      "name": "setOwner",
      "outputs": [],
      "stateMutability": "nonpayable",
      "type": "function"
    },
    {
      "inputs": [],
      "name": "symbol",
      "outputs": [
        {
          "internalType": "string",
          "name": "",
          "type": "string"
        }
      ],
      "stateMutability": "view",
      "type": "function"
    },
    {
      "inputs": [],
      "name": "totalSupply",
      "outputs": [
        {
          "internalType": "uint256",
          "name": "",
          "type": "uint256"
        }
      ],
      "stateMutability": "view",
      "type": "function"
    },
    {
      "inputs": [
        {
          "internalType": "address",
          "name": "recipient",
          "type": "address"
        },
        {
          "internalType": "uint256",
          "name": "amount",
          "type": "uint256"
        }
      ],
      "name": "transfer",
      "outputs": [
        {
          "internalType": "bool",
          "name": "",
          "type": "bool"
        }
      ],
      "stateMutability": "nonpayable",
      "type": "function"
    },
    {
      "inputs": [
        {
          "internalType": "address",
          "name": "sender",
          "type": "address"
        },
        {
          "internalType": "address",
          "name": "recipient",
          "type": "address"
        },
        {
          "internalType": "uint256",
          "name": "amount",
          "type": "uint256"
        }
      ],
      "name": "transferFrom",
      "outputs": [
        {
          "internalType": "bool",
          "name": "",
          "type": "bool"
        }
      ],
      "stateMutability": "nonpayable",
      "type": "function"
    },
    {
      "inputs": [
        {
          "internalType": "address",
          "name": "newOwner",
          "type": "address"
        }
      ],
      "name": "transferOwnership",
      "outputs": [],
      "stateMutability": "nonpayable",
      "type": "function"
    },
    {
      "inputs": [],
      "name": "unpause",
      "outputs": [],
      "stateMutability": "nonpayable",
      "type": "function"
    }
  ],
  "bytecode": "0x60806040526012600760006101000a81548160ff021916908360ff1602179055506040518060400160405280600b81526020017f54726f746820546f6b656e000000000000000000000000000000000000000000815250600890805190602001906200006d929190620004d0565b506040518060400160405280600381526020017f545248000000000000000000000000000000000000000000000000000000000081525060099080519060200190620000bb929190620004d0565b50348015620000c957600080fd5b5060088054620000d9906200068a565b80601f016020809104026020016040519081016040528092919081815260200182805462000107906200068a565b8015620001585780601f106200012c5761010080835404028352916020019162000158565b820191906000526020600020905b8154815290600101906020018083116200013a57829003601f168201915b5050505050600980546200016c906200068a565b80601f01602080910402602001604051908101604052809291908181526020018280546200019a906200068a565b8015620001eb5780601f10620001bf57610100808354040283529160200191620001eb565b820191906000526020600020905b815481529060010190602001808311620001cd57829003601f168201915b5050505050816003908051906020019062000208929190620004d0565b50806004908051906020019062000221929190620004d0565b50505062000244620002386200028a60201b60201c565b6200029260201b60201c565b6000600560146101000a81548160ff02191690831515021790555069d3c21bcecceda100000060068190555062000284336006546200035860201b60201c565b6200071e565b600033905090565b6000600560009054906101000a900473ffffffffffffffffffffffffffffffffffffffff16905081600560006101000a81548173ffffffffffffffffffffffffffffffffffffffff021916908373ffffffffffffffffffffffffffffffffffffffff1602179055508173ffffffffffffffffffffffffffffffffffffffff168173ffffffffffffffffffffffffffffffffffffffff167f8be0079c531659141344cd1fd0a4f28419497f9722a3daafe3b4186f6b6457e060405160405180910390a35050565b600073ffffffffffffffffffffffffffffffffffffffff168273ffffffffffffffffffffffffffffffffffffffff161415620003cb576040517f08c379a0000000000000000000000000000000000000000000000000000000008152600401620003c290620005d3565b60405180910390fd5b620003df60008383620004c660201b60201c565b8060026000828254620003f3919062000623565b92505081905550806000808473ffffffffffffffffffffffffffffffffffffffff1673ffffffffffffffffffffffffffffffffffffffff168152602001908152602001600020600082825401925050819055508173ffffffffffffffffffffffffffffffffffffffff16600073ffffffffffffffffffffffffffffffffffffffff167fddf252ad1be2c89b69c2b068fc378daa952ba7f163c4a11628f55a4df523b3ef83604051620004a69190620005f5565b60405180910390a3620004c260008383620004cb60201b60201c565b5050565b505050565b505050565b828054620004de906200068a565b90600052602060002090601f0160209004810192826200050257600085556200054e565b82601f106200051d57805160ff19168380011785556200054e565b828001600101855582156200054e579182015b828111156200054d57825182559160200191906001019062000530565b5b5090506200055d919062000561565b5090565b5b808211156200057c57600081600090555060010162000562565b5090565b60006200058f601f8362000612565b91507f45524332303a206d696e7420746f20746865207a65726f2061646472657373006000830152602082019050919050565b620005cd8162000680565b82525050565b60006020820190508181036000830152620005ee8162000580565b9050919050565b60006020820190506200060c6000830184620005c2565b92915050565b600082825260208201905092915050565b6000620006308262000680565b91506200063d8362000680565b9250827fffffffffffffffffffffffffffffffffffffffffffffffffffffffffffffffff03821115620006755762000674620006c0565b5b828201905092915050565b6000819050919050565b60006002820490506001821680620006a357607f821691505b60208210811415620006ba57620006b9620006ef565b5b50919050565b7f4e487b7100000000000000000000000000000000000000000000000000000000600052601160045260246000fd5b7f4e487b7100000000000000000000000000000000000000000000000000000000600052602260045260246000fd5b6126af806200072e6000396000f3fe608060405234801561001057600080fd5b50600436106101425760003560e01c806370a08231116100b857806395d89b411161007c57806395d89b411461033f578063a457c2d71461035d578063a9059cbb1461038d578063c5fb1b2c146103bd578063dd62ed3e146103ed578063f2fde38b1461041d57610142565b806370a08231146102c1578063715018a6146102f157806379cc6790146102fb5780638456cb59146103175780638da5cb5b1461032157610142565b8063313ce5671161010a578063313ce567146101ff578063395093511461021d5780633f4ba83a1461024d57806340c10f191461025757806342966c68146102875780635c975abb146102a357610142565b806306fdde0314610147578063095ea7b31461016557806313af40351461019557806318160ddd146101b157806323b872dd146101cf575b600080fd5b61014f610439565b60405161015c9190612122565b60405180910390f35b61017f600480360381019061017a9190611978565b6104cb565b60405161018c9190612107565b60405180910390f35b6101af60048036038101906101aa91906118c4565b6104ee565b005b6101b9610545565b6040516101c69190612384565b60405180910390f35b6101e960048036038101906101e49190611929565b61054f565b6040516101f69190612107565b60405180910390f35b610207610570565b604051610214919061239f565b60405180910390f35b61023760048036038101906102329190611978565b610587565b6040516102449190612107565b60405180910390f35b6102556105be565b005b610271600480360381019061026c9190611978565b6105d0565b60405161027e9190612107565b60405180910390f35b6102a1600480360381019061029c9190611a52565b61065e565b005b6102ab610695565b6040516102b89190612107565b60405180910390f35b6102db60048036038101906102d691906118c4565b6106ac565b6040516102e89190612384565b60405180910390f35b6102f96106be565b005b61031560048036038101906103109190611978565b6106d2565b005b61031f61076f565b005b610329610781565b60405161033691906120ec565b60405180910390f35b6103476107ab565b6040516103549190612122565b60405180910390f35b61037760048036038101906103729190611978565b61083d565b6040516103849190612107565b60405180910390f35b6103a760048036038101906103a29190611978565b6108b4565b6040516103b49190612107565b60405180910390f35b6103d760048036038101906103d291906119b4565b6108d3565b6040516103e49190612107565b60405180910390f35b610407600480360381019061040291906118ed565b610b93565b6040516104149190612384565b60405180910390f35b610437600480360381019061043291906118c4565b610c1a565b005b6060600880546104489061254a565b80601f01602080910402602001604051908101604052809291908181526020018280546104749061254a565b80156104c15780601f10610496576101008083540402835291602001916104c1565b820191906000526020600020905b8154815290600101906020018083116104a457829003601f168201915b5050505050905090565b6000806104d6610c9e565b90506104e3818585610ca6565b600191505092915050565b6104f6610e71565b600073ffffffffffffffffffffffffffffffffffffffff168173ffffffffffffffffffffffffffffffffffffffff161415610538576105336106be565b610542565b61054181610c1a565b5b50565b6000600654905090565b6000610559610eef565b610564848484610f39565b50600190509392505050565b6000600760009054906101000a900460ff16905090565b600080610592610c9e565b90506105b38185856105a48589610b93565b6105ae919061241c565b610ca6565b600191505092915050565b6105c6610e71565b6105ce610f68565b565b60006105da610e71565b600073ffffffffffffffffffffffffffffffffffffffff168373ffffffffffffffffffffffffffffffffffffffff16141561064a576040517f08c379a000000000000000000000000000000000000000000000000000000000815260040161064190612184565b60405180910390fd5b6106548383610fcb565b6001905092915050565b610666610e71565b610677610671610c9e565b82611122565b61068c816006546112f090919063ffffffff16565b60068190555050565b6000600560149054906101000a900460ff16905090565b60006106b782611306565b9050919050565b6106c6610e71565b6106d0600061134e565b565b60006106e5836106e0610c9e565b610b93565b90508181101561072a576040517f08c379a0000000000000000000000000000000000000000000000000000000008152600401610721906122a4565b60405180910390fd5b61074783610736610c9e565b84846107429190612472565b610ca6565b6107518383611122565b81600660008282546107639190612472565b92505081905550505050565b610777610e71565b61077f611414565b565b6000600560009054906101000a900473ffffffffffffffffffffffffffffffffffffffff16905090565b6060600980546107ba9061254a565b80601f01602080910402602001604051908101604052809291908181526020018280546107e69061254a565b80156108335780601f1061080857610100808354040283529160200191610833565b820191906000526020600020905b81548152906001019060200180831161081657829003601f168201915b5050505050905090565b600080610848610c9e565b905060006108568286610b93565b90508381101561089b576040517f08c379a000000000000000000000000000000000000000000000000000000000815260040161089290612344565b60405180910390fd5b6108a88286868403610ca6565b60019250505092915050565b60006108be610eef565b6108c88383611477565b506001905092915050565b60006108dd610e71565b828290508585905014610925576040517f08c379a000000000000000000000000000000000000000000000000000000000815260040161091c906122c4565b60405180910390fd5b6000805b86869050811015610b1657600073ffffffffffffffffffffffffffffffffffffffff16878783818110610985577f4e487b7100000000000000000000000000000000000000000000000000000000600052603260045260246000fd5b905060200201602081019061099a91906118c4565b73ffffffffffffffffffffffffffffffffffffffff1614156109f1576040517f08c379a00000000000000000000000000000000000000000000000000000000081526004016109e890612184565b60405180910390fd5b848482818110610a2a577f4e487b7100000000000000000000000000000000000000000000000000000000600052603260045260246000fd5b9050602002016020810190610a3f9190611a29565b82610a4a91906123d6565b9150610b0333888884818110610a89577f4e487b7100000000000000000000000000000000000000000000000000000000600052603260045260246000fd5b9050602002016020810190610a9e91906118c4565b878785818110610ad7577f4e487b7100000000000000000000000000000000000000000000000000000000600052603260045260246000fd5b9050602002016020810190610aec9190611a29565b6fffffffffffffffffffffffffffffffff1661149a565b8080610b0e9061257c565b915050610929565b50610b2033611306565b6fffffffffffffffffffffffffffffffff16816fffffffffffffffffffffffffffffffff161115610b86576040517f08c379a0000000000000000000000000000000000000000000000000000000008152600401610b7d90612244565b60405180910390fd5b6001915050949350505050565b6000600160008473ffffffffffffffffffffffffffffffffffffffff1673ffffffffffffffffffffffffffffffffffffffff16815260200190815260200160002060008373ffffffffffffffffffffffffffffffffffffffff1673ffffffffffffffffffffffffffffffffffffffff16815260200190815260200160002054905092915050565b610c22610e71565b600073ffffffffffffffffffffffffffffffffffffffff168173ffffffffffffffffffffffffffffffffffffffff161415610c92576040517f08c379a0000000000000000000000000000000000000000000000000000000008152600401610c89906121c4565b60405180910390fd5b610c9b8161134e565b50565b600033905090565b600073ffffffffffffffffffffffffffffffffffffffff168373ffffffffffffffffffffffffffffffffffffffff161415610d16576040517f08c379a0000000000000000000000000000000000000000000000000000000008152600401610d0d90612324565b60405180910390fd5b600073ffffffffffffffffffffffffffffffffffffffff168273ffffffffffffffffffffffffffffffffffffffff161415610d86576040517f08c379a0000000000000000000000000000000000000000000000000000000008152600401610d7d906121e4565b60405180910390fd5b80600160008573ffffffffffffffffffffffffffffffffffffffff1673ffffffffffffffffffffffffffffffffffffffff16815260200190815260200160002060008473ffffffffffffffffffffffffffffffffffffffff1673ffffffffffffffffffffffffffffffffffffffff168152602001908152602001600020819055508173ffffffffffffffffffffffffffffffffffffffff168373ffffffffffffffffffffffffffffffffffffffff167f8c5be1e5ebec7d5bd14f71427d1e84f3dd0314c0f7b2291e5b200ac8c7c3b92583604051610e649190612384565b60405180910390a3505050565b610e79610c9e565b73ffffffffffffffffffffffffffffffffffffffff16610e97610781565b73ffffffffffffffffffffffffffffffffffffffff1614610eed576040517f08c379a0000000000000000000000000000000000000000000000000000000008152600401610ee490612284565b60405180910390fd5b565b610ef7610695565b15610f37576040517f08c379a0000000000000000000000000000000000000000000000000000000008152600401610f2e90612264565b60405180910390fd5b565b600080610f44610c9e565b9050610f51858285611712565b610f5c85858561149a565b60019150509392505050565b610f7061179e565b6000600560146101000a81548160ff0219169083151502179055507f5db9ee0a495bf2e6ff9c91a7834c1ba4fdd244a5e8aa4e537bd38aeae4b073aa610fb4610c9e565b604051610fc191906120ec565b60405180910390a1565b600073ffffffffffffffffffffffffffffffffffffffff168273ffffffffffffffffffffffffffffffffffffffff16141561103b576040517f08c379a000000000000000000000000000000000000000000000000000000000815260040161103290612364565b60405180910390fd5b611047600083836117e7565b8060026000828254611059919061241c565b92505081905550806000808473ffffffffffffffffffffffffffffffffffffffff1673ffffffffffffffffffffffffffffffffffffffff168152602001908152602001600020600082825401925050819055508173ffffffffffffffffffffffffffffffffffffffff16600073ffffffffffffffffffffffffffffffffffffffff167fddf252ad1be2c89b69c2b068fc378daa952ba7f163c4a11628f55a4df523b3ef8360405161110a9190612384565b60405180910390a361111e600083836117ec565b5050565b600073ffffffffffffffffffffffffffffffffffffffff168273ffffffffffffffffffffffffffffffffffffffff161415611192576040517f08c379a0000000000000000000000000000000000000000000000000000000008152600401611189906122e4565b60405180910390fd5b61119e826000836117e7565b60008060008473ffffffffffffffffffffffffffffffffffffffff1673ffffffffffffffffffffffffffffffffffffffff16815260200190815260200160002054905081811015611224576040517f08c379a000000000000000000000000000000000000000000000000000000000815260040161121b906121a4565b60405180910390fd5b8181036000808573ffffffffffffffffffffffffffffffffffffffff1673ffffffffffffffffffffffffffffffffffffffff1681526020019081526020016000208190555081600260008282540392505081905550600073ffffffffffffffffffffffffffffffffffffffff168373ffffffffffffffffffffffffffffffffffffffff167fddf252ad1be2c89b69c2b068fc378daa952ba7f163c4a11628f55a4df523b3ef846040516112d79190612384565b60405180910390a36112eb836000846117ec565b505050565b600081836112fe9190612472565b905092915050565b60008060008373ffffffffffffffffffffffffffffffffffffffff1673ffffffffffffffffffffffffffffffffffffffff168152602001908152602001600020549050919050565b6000600560009054906101000a900473ffffffffffffffffffffffffffffffffffffffff16905081600560006101000a81548173ffffffffffffffffffffffffffffffffffffffff021916908373ffffffffffffffffffffffffffffffffffffffff1602179055508173ffffffffffffffffffffffffffffffffffffffff168173ffffffffffffffffffffffffffffffffffffffff167f8be0079c531659141344cd1fd0a4f28419497f9722a3daafe3b4186f6b6457e060405160405180910390a35050565b61141c610eef565b6001600560146101000a81548160ff0219169083151502179055507f62e78cea01bee320cd4e420270b5ea74000d11b0c9f74754ebdbfc544b05a258611460610c9e565b60405161146d91906120ec565b60405180910390a1565b600080611482610c9e565b905061148f81858561149a565b600191505092915050565b600073ffffffffffffffffffffffffffffffffffffffff168373ffffffffffffffffffffffffffffffffffffffff16141561150a576040517f08c379a000000000000000000000000000000000000000000000000000000000815260040161150190612304565b60405180910390fd5b600073ffffffffffffffffffffffffffffffffffffffff168273ffffffffffffffffffffffffffffffffffffffff16141561157a576040517f08c379a000000000000000000000000000000000000000000000000000000000815260040161157190612144565b60405180910390fd5b6115858383836117e7565b60008060008573ffffffffffffffffffffffffffffffffffffffff1673ffffffffffffffffffffffffffffffffffffffff1681526020019081526020016000205490508181101561160b576040517f08c379a000000000000000000000000000000000000000000000000000000000815260040161160290612224565b60405180910390fd5b8181036000808673ffffffffffffffffffffffffffffffffffffffff1673ffffffffffffffffffffffffffffffffffffffff16815260200190815260200160002081905550816000808573ffffffffffffffffffffffffffffffffffffffff1673ffffffffffffffffffffffffffffffffffffffff168152602001908152602001600020600082825401925050819055508273ffffffffffffffffffffffffffffffffffffffff168473ffffffffffffffffffffffffffffffffffffffff167fddf252ad1be2c89b69c2b068fc378daa952ba7f163c4a11628f55a4df523b3ef846040516116f99190612384565b60405180910390a361170c8484846117ec565b50505050565b600061171e8484610b93565b90507fffffffffffffffffffffffffffffffffffffffffffffffffffffffffffffffff8114611798578181101561178a576040517f08c379a000000000000000000000000000000000000000000000000000000000815260040161178190612204565b60405180910390fd5b6117978484848403610ca6565b5b50505050565b6117a6610695565b6117e5576040517f08c379a00000000000000000000000000000000000000000000000000000000081526004016117dc90612164565b60405180910390fd5b565b505050565b505050565b60008135905061180081612634565b92915050565b60008083601f84011261181857600080fd5b8235905067ffffffffffffffff81111561183157600080fd5b60208301915083602082028301111561184957600080fd5b9250929050565b60008083601f84011261186257600080fd5b8235905067ffffffffffffffff81111561187b57600080fd5b60208301915083602082028301111561189357600080fd5b9250929050565b6000813590506118a98161264b565b92915050565b6000813590506118be81612662565b92915050565b6000602082840312156118d657600080fd5b60006118e4848285016117f1565b91505092915050565b6000806040838503121561190057600080fd5b600061190e858286016117f1565b925050602061191f858286016117f1565b9150509250929050565b60008060006060848603121561193e57600080fd5b600061194c868287016117f1565b935050602061195d868287016117f1565b925050604061196e868287016118af565b9150509250925092565b6000806040838503121561198b57600080fd5b6000611999858286016117f1565b92505060206119aa858286016118af565b9150509250929050565b600080600080604085870312156119ca57600080fd5b600085013567ffffffffffffffff8111156119e457600080fd5b6119f087828801611806565b9450945050602085013567ffffffffffffffff811115611a0f57600080fd5b611a1b87828801611850565b925092505092959194509250565b600060208284031215611a3b57600080fd5b6000611a498482850161189a565b91505092915050565b600060208284031215611a6457600080fd5b6000611a72848285016118af565b91505092915050565b611a84816124a6565b82525050565b611a93816124b8565b82525050565b6000611aa4826123ba565b611aae81856123c5565b9350611abe818560208601612517565b611ac781612623565b840191505092915050565b6000611adf6023836123c5565b91507f45524332303a207472616e7366657220746f20746865207a65726f206164647260008301527f65737300000000000000000000000000000000000000000000000000000000006020830152604082019050919050565b6000611b456014836123c5565b91507f5061757361626c653a206e6f74207061757365640000000000000000000000006000830152602082019050919050565b6000611b85600f836123c5565b91507f496e76616c6964206164647265737300000000000000000000000000000000006000830152602082019050919050565b6000611bc56022836123c5565b91507f45524332303a206275726e20616d6f756e7420657863656564732062616c616e60008301527f63650000000000000000000000000000000000000000000000000000000000006020830152604082019050919050565b6000611c2b6026836123c5565b91507f4f776e61626c653a206e6577206f776e657220697320746865207a65726f206160008301527f64647265737300000000000000000000000000000000000000000000000000006020830152604082019050919050565b6000611c916022836123c5565b91507f45524332303a20617070726f766520746f20746865207a65726f20616464726560008301527f73730000000000000000000000000000000000000000000000000000000000006020830152604082019050919050565b6000611cf7601d836123c5565b91507f45524332303a20696e73756666696369656e7420616c6c6f77616e63650000006000830152602082019050919050565b6000611d376026836123c5565b91507f45524332303a207472616e7366657220616d6f756e742065786365656473206260008301527f616c616e636500000000000000000000000000000000000000000000000000006020830152604082019050919050565b6000611d9d6014836123c5565b91507f496e73756666696369656e742062616c616e63650000000000000000000000006000830152602082019050919050565b6000611ddd6010836123c5565b91507f5061757361626c653a20706175736564000000000000000000000000000000006000830152602082019050919050565b6000611e1d6020836123c5565b91507f4f776e61626c653a2063616c6c6572206973206e6f7420746865206f776e65726000830152602082019050919050565b6000611e5d6024836123c5565b91507f45524332303a206275726e20616d6f756e74206578636565647320616c6c6f7760008301527f616e6365000000000000000000000000000000000000000000000000000000006020830152604082019050919050565b6000611ec3600d836123c5565b91507f496e76616c696420696e707574000000000000000000000000000000000000006000830152602082019050919050565b6000611f036021836123c5565b91507f45524332303a206275726e2066726f6d20746865207a65726f2061646472657360008301527f73000000000000000000000000000000000000000000000000000000000000006020830152604082019050919050565b6000611f696025836123c5565b91507f45524332303a207472616e736665722066726f6d20746865207a65726f20616460008301527f64726573730000000000000000000000000000000000000000000000000000006020830152604082019050919050565b6000611fcf6024836123c5565b91507f45524332303a20617070726f76652066726f6d20746865207a65726f2061646460008301527f72657373000000000000000000000000000000000000000000000000000000006020830152604082019050919050565b60006120356025836123c5565b91507f45524332303a2064656372656173656420616c6c6f77616e63652062656c6f7760008301527f207a65726f0000000000000000000000000000000000000000000000000000006020830152604082019050919050565b600061209b601f836123c5565b91507f45524332303a206d696e7420746f20746865207a65726f2061646472657373006000830152602082019050919050565b6120d781612500565b82525050565b6120e68161250a565b82525050565b60006020820190506121016000830184611a7b565b92915050565b600060208201905061211c6000830184611a8a565b92915050565b6000602082019050818103600083015261213c8184611a99565b905092915050565b6000602082019050818103600083015261215d81611ad2565b9050919050565b6000602082019050818103600083015261217d81611b38565b9050919050565b6000602082019050818103600083015261219d81611b78565b9050919050565b600060208201905081810360008301526121bd81611bb8565b9050919050565b600060208201905081810360008301526121dd81611c1e565b9050919050565b600060208201905081810360008301526121fd81611c84565b9050919050565b6000602082019050818103600083015261221d81611cea565b9050919050565b6000602082019050818103600083015261223d81611d2a565b9050919050565b6000602082019050818103600083015261225d81611d90565b9050919050565b6000602082019050818103600083015261227d81611dd0565b9050919050565b6000602082019050818103600083015261229d81611e10565b9050919050565b600060208201905081810360008301526122bd81611e50565b9050919050565b600060208201905081810360008301526122dd81611eb6565b9050919050565b600060208201905081810360008301526122fd81611ef6565b9050919050565b6000602082019050818103600083015261231d81611f5c565b9050919050565b6000602082019050818103600083015261233d81611fc2565b9050919050565b6000602082019050818103600083015261235d81612028565b9050919050565b6000602082019050818103600083015261237d8161208e565b9050919050565b600060208201905061239960008301846120ce565b92915050565b60006020820190506123b460008301846120dd565b92915050565b600081519050919050565b600082825260208201905092915050565b60006123e1826124c4565b91506123ec836124c4565b9250826fffffffffffffffffffffffffffffffff03821115612411576124106125c5565b5b828201905092915050565b600061242782612500565b915061243283612500565b9250827fffffffffffffffffffffffffffffffffffffffffffffffffffffffffffffffff03821115612467576124666125c5565b5b828201905092915050565b600061247d82612500565b915061248883612500565b92508282101561249b5761249a6125c5565b5b828203905092915050565b60006124b1826124e0565b9050919050565b60008115159050919050565b60006fffffffffffffffffffffffffffffffff82169050919050565b600073ffffffffffffffffffffffffffffffffffffffff82169050919050565b6000819050919050565b600060ff82169050919050565b60005b8381101561253557808201518184015260208101905061251a565b83811115612544576000848401525b50505050565b6000600282049050600182168061256257607f821691505b60208210811415612576576125756125f4565b5b50919050565b600061258782612500565b91507fffffffffffffffffffffffffffffffffffffffffffffffffffffffffffffffff8214156125ba576125b96125c5565b5b600182019050919050565b7f4e487b7100000000000000000000000000000000000000000000000000000000600052601160045260246000fd5b7f4e487b7100000000000000000000000000000000000000000000000000000000600052602260045260246000fd5b6000601f19601f8301169050919050565b61263d816124a6565b811461264857600080fd5b50565b612654816124c4565b811461265f57600080fd5b50565b61266b81612500565b811461267657600080fd5b5056fea2646970667358221220bb7b1e22f9140d8832246b319e9de59b34ae96fd971a8513ccb034fba5a9642364736f6c63430008000033",
  "linkReferences": {},
  "deployedLinkReferences": {}
}